:020000040800F2
:10000000380400200101000815120008171200082A
:100010001B1200081F120008231200080000000035
:10002000000000000000000000000000271200088F
:1000300029120008000000002B1200082D120008F1
:100040001B0100081B0100081B0100081B01000820
:100050001B0100081B0100081B0100081B01000810
:100060001B0100081B0100081B0100081B01000800
:100070001B0100081B0100081B0100081B010008F0
:100080001B0100081B0100081B0100081B010008E0
:100090001B0100081B0100081B0100081B010008D0
:1000A0001B0100081B0100081B0100081B010008C0
:1000B0001B0100081B0100081B0100081B010008B0
:1000C0001B0100081B0100081B0100081B010008A0
:1000D0001B0100081B0100081B0100081B01000890
:1000E0001B0100081B0100081B010008DFF80CD0F1
:1000F00001F054FD00480047F511000838040020C5
:100100000648804706480047FEE7FEE7FEE7FEE7B1
:10011000FEE7FEE7FEE7FEE7FEE7FEE70302000874
:10012000ED0000080CB50020019000906C480068BC
:1001300040F480306A49086000BF6948006800F4F4
:10014000003000900198401C0190009818B9019867
:10015000B0F5A06FF1D16248006800F4003010B132
:100160000120009001E0002000900098012843D178
:100170005C48006840F010005A4908600846006872
:1001800020F0030008600846006840F002000860A4
:1001900053484068524948600846406848600846ED
:1001A000406840F4806048600846406820F47C1055
:1001B00048600846406840F4E81048600846006817
:1001C00040F08070086000BF4548006800F0007093
:1001D0000028F9D04248406820F0030040494860B8
:1001E0000846406840F00200486000BF3C48406854
:1001F00000F00C000828F9D10CBD10B5FFF792FFF4
:1002000010BD10B53648006840F001003449086060
:10021000084640683449084031494860084600684B
:10022000324908402E4908600846006820F48020C2
:1002300008600846406820F4FE0048604FF41F0044
:100240008860FFF7DAFF4FF000602949086010BDB1
:1002500010B5002100200022214B5B6803F00C0147
:1002600021B1042906D0082928D107E0214B224CCE
:10027000236027E01F4B204C236023E0184B5B6872
:1002800003F47010164B5B6803F48032022303EB17
:10029000904022B9194B4343174C23600DE0104B9B
:1002A0005B6803F4003323B1144B4343124C2360C7
:1002B00003E0104B4343104C236003E00D4B0E4C06
:1002C000236000BF00BF064B5B68C3F303130C4CF5
:1002D000E15C094B1B68CB40074C236010BD00005C
:1002E00000100240002002400000FFF8FFFFF6FE71
:1002F00008ED00E000127A000000002000093D0037
:100300000400002031490143314A1160704770B543
:10031000002100230F22C47804B32D4C246804F478
:10032000E064C4F5E064210AC1F10403CA404478E2
:1003300004FA03F18478144021430901254C06781E
:10034000A155047804F01F050124AC4005786D1117
:10035000AD0005F1E025C5F8004109E0047804F09E
:100360001F050124AC401C4D0678761145F8264047
:1003700070BD1A4A0A400243154B1B1F1A60704792
:1003800039B1134A121D12680243114B1B1D1A602A
:1003900006E00F4A121D126882430D4B1B1D1A60A6
:1003A0007047042808D14FF0E021096941F00401A9
:1003B0004FF0E022116107E04FF0E021096921F0E0
:1003C00004014FF0E0221161704700000000FA05BF
:1003D0000CED00E000E400E080E100E080FFFF1FA2
:1003E00010B50446CC48844208D10121042000F015
:1003F0002DFB0021042000F029FB46E0C748844281
:1004000008D10121082000F021FB0021082000F084
:100410001DFB3AE0C248844208D10121102000F0BF
:1004200015FB0021102000F011FB2EE0BD48844296
:1004300008D10121202000F009FB0021202000F03C
:1004400005FB22E0B848844208D10121402000F099
:10045000FDFA0021402000F0F9FA16E0B34884428A
:1004600008D10121802000F0F1FA0021802000F065
:10047000EDFA0AE0AE48844207D10121801500F070
:10048000E5FA0021A01500F0E1FA10BD10B5012138
:10049000084600F0DBFA0021012000F0D7FA10BD79
:1004A0002DE9F0410246002500260020002300240B
:1004B000002791F803C00CF00F0591F803C00CF071
:1004C000100CBCF1000F03D091F802C04CEA0505F6
:1004D00091F800C0BCF1000F31D0146800202BE06F
:1004E0004FF0010C0CFA00F3B1F800C00CEA03065F
:1004F0009E4220D183004FF00F0C0CFA03F7BC434F
:1005000005FA03FC4CEA040491F803C0BCF1280F7F
:1005100006D14FF0010C0CFA00FCC2F814C00AE03E
:1005200091F803C0BCF1480F05D14FF0010C0CFA53
:1005300000FCC2F810C0401C0828D1D31460B1F8E8
:1005400000C0BCF1FF0F34DD546800202EE000F144
:10055000080C4FF0010808FA0CF3B1F800C00CEADF
:1005600003069E4221D183004FF00F0C0CFA03F7D3
:10057000BC4305FA03FC4CEA040491F803C0BCF147
:10058000280F05D100F1080C08FA0CF8C2F8148005
:1005900091F803C0BCF1480F07D100F1080C4FF0EF
:1005A000010808FA0CF8C2F81080401C0828CED3C5
:1005B0005460BDE8F0814FF6FF7101800221817027
:1005C0000421C17070470246002093680B400BB1B4
:1005D000012000E0002070470146886880B2704723
:1005E00002460020D3680B400BB1012000E0002040
:1005F00070470146C86880B2704701617047416129
:1006000070470AB1016100E041617047C160704705
:100610004FF480320A43826181618261826982691A
:10062000704702460020434B18684FF6807318400D
:1006300040EA021008433F4B186070473E49C861CA
:100640007047F0B50A46002300240021002500F081
:100650000046B6F1004F02D1364EF16901E0354E49
:100660007168C0F3034583B200F44016B6F5401F2D
:1006700008D121F070612F4E766826F070662D4FFC
:100680007E6012E000F48016B6F5801F06D10326C6
:1006900006FA05F4A14341F0706106E0460D36010B
:1006A00003FA06F6B14341F0706122B1460D3601FE
:1006B00003FA06F6314300F00046B6F1004F02D1CE
:1006C0001C4EF16101E01B4E7160F0BD30B500229F
:1006D0008B071C0F0F2303FA04F2164B08338C1000
:1006E00053F824309343134C08348D1044F82530CC
:1006F00023468C1053F824308C07240F00FA04F49E
:1007000023430C4C08348D1044F8253030BD0A4981
:10071000DC3108607047000000080140000C014017
:10072000001001400014014000180140001C01406D
:10073000002001400000014000002042DF48006826
:1007400040F00100DD49086008464068DC49084087
:10075000DA49486008460068DA490840D749086025
:100760000846006820F4802008600846406820F4AD
:10077000FE0048604FF41F0088607047CF49096849
:1007800021F48031CD4A11601146096821F480219D
:100790001160B0F5803F03D0B0F5802F0ED106E098
:1007A000C649096841F48031C44A116007E0C34971
:1007B000096841F4A021C14A116000E000BF00BFF8
:1007C000704710B501460022002300204A11012A7B
:1007D00002D1BA4C236806E0022A02D1B74C236A40
:1007E00001E0B64C636A01F01F02012494401C40F2
:1007F0000CB1012000E0002010BD38B500200090B1
:100800000024002500BF3120FFF7DBFF05460098DC
:10081000401C00900098B0F5A06F01D0002DF2D0E0
:100820003120FFF7CEFF08B1012400E0002420466C
:1008300038BD01460020A14A106820F0F80040EAC7
:10084000C10010607047A049086070470246002050
:100850009A4B586820F47C1042EA01031843974BE6
:100860005860704798490866704701460020934ACF
:10087000506820F003000843506070478F4840687C
:1008800000F00C007047014600208C4A506820F0B0
:10089000F00008435060704701460020874A5068C6
:1008A00020F4E06008435060704701460020834A0E
:1008B000506820F4605040EAC1005060704729B190
:1008C0007E4A527A02437D4B5A7204E07B4A527A46
:1008D00082437A4B5A7270477B49D831086070471F
:1008E00001460020754A506820F44040084350609B
:1008F00070470021714A20321170704A82F820102E
:10090000012802D004280AD104E001216B4A2032D8
:10091000117005E00521694A2032117000E000BF26
:1009200000BF70476949086070476449096A01431C
:10093000624A11627047654944390860704730B5B2
:1009400000210022002400235C4D6D6805F00C019D
:1009500021B1042905D0082923D105E05C4D0560AB
:1009600022E05B4D05601FE0544D6D6805F4701288
:10097000524D6D6805F48034022505EB92421CB996
:10098000544D554305600BE04C4D6D6805F4003542
:100990001DB1504D5543056002E04D4D5543056076
:1009A00002E04B4D056000BF00BF444D6D6805F08F
:1009B000F0010909484D6B5C0568DD4045603F4D1D
:1009C0006D6805F4E061090A434D6B5C4568DD40E4
:1009D00085603A4D6D6805F46051C90A3E4D6B5C07
:1009E0004568DD40C560354D6D6805F44041890BB3
:1009F0003A4D6B5CC568B5FBF3F5056130BD29B1B7
:100A00002E4A526902432D4B5A6104E02B4A526927
:100A100082432A4B5A61704729B1284A926902439E
:100A2000264B9A6104E0254A92698243234B9A61DE
:100A3000704729B1214AD2690243204BDA6104E0B0
:100A40001E4AD26982431D4BDA61704729B11B4AA5
:100A5000D2680243194BDA6004E0184AD268824334
:100A6000164BDA60704729B1144A12690243134BDE
:100A70001A6104E0114A12698243104B1A617047EF
:100A800012494039086070470F49C86470470B49E4
:100A9000C87170470948406A40F080700749486251
:100AA000704701460020054A92680A400AB10120B9
:100AB00000E0002070470149887270470010024032
:100AC0000000FFF8FFFFF6FE0000424280044242B1
:100AD00000127A0000093D001400002024000020CC
:100AE00010B50446FB48844209D101218803FFF771
:100AF000ADFF00214FF48040FFF7A8FF32E0F64839
:100B0000844209D101214804FFF7ADFF00214FF4D1
:100B10000030FFF7A8FF25E0F048844209D1012109
:100B20008804FFF7A0FF00214FF48020FFF79BFF10
:100B300018E0EB48844209D10121C804FFF793FF74
:100B400000214FF40020FFF78EFF0BE0E5488442C0
:100B500008D101210805FFF786FF00214FF480101E
:100B6000FFF781FF10BD2DE9F04786B005460E4620
:100B70000024A24600BFA1460027B08900B100BFF3
:100B80002F462C8A4CF6FF700440F08804432C82D8
:100B9000AC894EF6F3100440B0883189084371895E
:100BA00008430443AC81AC8A4FF6FF400440B0894F
:100BB0000443AC8201A8FFF7C2FEC648874202D1B7
:100BC000DDF810A001E0DDF80CA0A88900F40040D9
:100BD00040B10AEBCA0000EB0A1031684900B0FBD3
:100BE000F1F807E00AEBCA0000EB0A10316889004F
:100BF000B0FBF1F86420B8FBF0F004012009642197
:100C000001FB1089A88900F4004040B1322000EBBC
:100C1000C900B0FBF1F000F00700044308E0322007
:100C200000EB09106421B0FBF1F000F00F00044369
:100C30002C8106B0BDE8F0874FF416510160002109
:100C40008180C18001810C21418100218181704717
:100C500010B502460020108A4FF2FF0318400B889F
:100C60004C8823438C882343CC8823431843108229
:100C700010BD0021018041808180C180704721B179
:100C8000828942F40052828104E082894DF6FF732A
:100C90001A4082817047F0B50346002400260025E3
:100CA000002040F66A17B94200D100BF1846C1F3D0
:100CB000421401F01F06012707FA06F5012C01D1A5
:100CC0000C3004E0022C01D1103000E014301AB1D5
:100CD00007682F43076002E00768AF430760F0BD75
:100CE0001AB1838A0B43838202E0838A8B43838217
:100CF0007047028A4FF6F0731A400282028A0A4352
:100D00000282704782894FF2FF731A408281828982
:100D10000A438281704721B1828942F002028281B6
:100D200004E082894FF6FD731A4082817047028A7F
:100D30004FF6DF731A400282028A0A43028270472A
:100D400021B1028A42F48042028204E0028A4BF618
:100D5000FF731A4002827047C1F308028280704715
:100D600001468888C0F308007047818941F001017D
:100D700081817047028BD2B20283028B42EA012248
:100D800002837047028B02F47F420283028B0A4384
:100D90000283704721B1828A42F02002828204E0FD
:100DA000828A4FF6DF731A408282704721B1828AAD
:100DB00042F01002828204E0828A4FF6EF731A40FA
:100DC0008282704721B1828A42F00802828204E066
:100DD000828A4FF6F7731A408282704721B1828966
:100DE00042F40042828103E08289C2F30E028281D2
:100DF000704721B1828A42F40062828204E0828AD2
:100E00004FF2FF731A4082827047828A4FF6FB735B
:100E10001A408282828A0A438282704721B1828A82
:100E200042F00202828204E0828A4FF6FD731A4089
:100E30008282704702460020B1F5007F00D100BFDA
:100E400013880B400BB1012000E00020704701F433
:100E50000072B2F5007F00D100BFCA430280704724
:100E600070B50246002400230025002040F66A16D3
:100E7000B14200D100BFC1F3421501F01F030126AA
:100E800006FA03F3012D02D19689334006E0022DC4
:100E900002D1168A334001E0968A33400C120126B3
:100EA00006FA04F41688344013B10CB1012000E0B6
:100EB000002070BD10B50022002340F66A14A14244
:100EC00000D100BF0A1201249440A3B2DC43048085
:100ED00010BD0000003801400044004000480040C0
:100EE000004C00400050004010B50446BE4884420B
:100EF00008D101218014FFF7A9FD0021A014FFF7FC
:100F0000A5FD16E0B948844208D101210014FFF77D
:100F1000AAFD00212014FFF7A6FD0AE0B448844290
:100F200007D10121C013FFF79EFD0021E013FFF759
:100F30009AFD10BD10B50022028802F441520B88C0
:100F40004C8823438C882343CC8823430C89234338
:100F50004C8923438C892343CC8923431A43028041
:100F6000838B4FF2FF74234083830B8A038210BD6F
:100F70002DE9F04F85B005460C464FF000090227D9
:100F80004FF000084FF0010B0026B246A88B4FF23D
:100F900040010840A88302202884B5F81C90A0686E
:100FA000022801D100BF38E0A08810B94FF0010B32
:100FB00001E04FF0020B8D48854200D100E000BFF8
:100FC0006846FFF7BCFCDDF800A0E088B0F5007FC4
:100FD0000AD14FEA1A2000EB80004000A168B0FB64
:100FE000F1F0401D86B20BE04FEA4B10BAFBF0F077
:100FF00000EB80004000A168B0FBF1F0401D86B21C
:101000000A20B6FBF0F606F00108A6EB0800C0F3D4
:101010004F074FF6FF7000EA0828022F01DBFF2F71
:1010200002DD02274FF00008E08840EA080038435C
:101030002884A088A189084361880843218808433F
:1010400040F4006040EA0909A5F81C9005B0BDE82D
:10105000F08F0021018041808180C1800181418128
:101060008181C18107210182704700210180418077
:101070008180C1800221816000218181704721B17E
:10108000028842F04002028004E002884FF6BF73FB
:101090001A400280704721B1828B42F480628283C1
:1010A00004E0828B4FF6FF331A408283704730B5DD
:1010B000002400230C110125A540ABB21AB185888C
:1010C0001D43858002E085889D43858030BD1AB12F
:1010D00083880B43838002E083888B43838070473F
:1010E000818170470146888970474FF6FF629142BF
:1010F00004D0028842F48072028004E002884FF635
:10110000FF631A400280704721B1828842F00402D6
:10111000828004E082884FF6FB731A408280704719
:1011200002884FF2FF731A40028002880A4302804D
:101130007047018841F480510180704721B10288D5
:1011400042F40052028004E002884DF6FF731A4018
:101150000280704702460020012901D0108B00E078
:10116000908A70470146088A7047B1F5804F04D1D4
:10117000028842F48042028004E002884BF6FF734A
:101180001A40028070470246002013890B400BB1C1
:10119000012000E000207047CA4302817047F0B58B
:1011A0000246002000240023002501F00F0701263D
:1011B000BE40B4B20B1101269E40B3B2968806EA37
:1011C00003051689264016B10DB1012000E000206C
:1011D000F0BD10B5002201F00F040123A3409AB224
:1011E000D343038110BD00000030014000380040AF
:1011F000003C004000F096F900F0A9F800F079FA00
:1012000000F081FA05E000F091FA41F2883000F038
:10121000A2F8F8E7704700BFFEE700BFFEE700BF97
:10122000FEE700BFFEE77047704770477047000059
:1012300030B50146B1F1807F01D3012030BD21F0EE
:101240007F40401E4FF0E022506150170F220028CF
:1012500007DA13071D0E464B00F00F04241F1D551F
:1012600003E013071C0E434B1C5400BF00204FF03B
:10127000E0229061072010610020DFE710B53E48B2
:1012800000683E49B0FBF1F42046FFF7D1FF08B1FA
:1012900000BFFEE710BD01B53949009808604FF066
:1012A000E020006940F001004FF0E021086100BF3C
:1012B000334800680028FBD108BD3148006820B1E0
:1012C0002F480068401E2E490860704731B52A48F3
:1012D00000682C49B0FBF1F52846FFF7A9FF002470
:1012E00008E000BF4FF0E020006900F480300028E3
:1012F000F8D0641C00988442F3D34FF0E0200069DA
:1013000020F001004FF0E021086138BD31B51A48E6
:1013100000684FF47A71B0FBF1F52846FFF788FFBB
:10132000002408E000BF4FF0E020006900F48030A6
:101330000028F8D0641C00988442F3D34FF0E020DA
:10134000006920F001004FF0E021086138BD10B5C0
:10135000FFF794FF10BD10B504462046FFF7D6FFF7
:1013600010BD10B504462046FFF7B0FF10BD0000C9
:1013700018ED00E000E400E000000020A08601007D
:101380002800002040420F0008B54FF4A060FEF78F
:10139000B9FF25208DF8000001208DF801008DF89F
:1013A00002008DF803006846FEF7B1FF08BD00B5E6
:1013B00085B001210420FFF72FFB01218803FFF7EF
:1013C0002BFB4FF40070ADF8100018208DF81300BF
:1013D00003208DF8120004A95448FFF761F84FF478
:1013E0008060ADF8100004208DF8130004A94F4868
:1013F000FFF756F84FF4E13000900020ADF80400FC
:10140000ADF80600ADF80800ADF80C000C20ADF802
:101410000A0069464648FFF7A6FBFFF7B5FF012221
:1014200040F225514248FFF736FC01214048FFF7C2
:1014300026FC05B000BD70B504460D462946204681
:10144000FFF78AFC00BF80212046FFF7F3FC00284D
:10145000F9D070BD2DE9F04107460D46164600242F
:1014600005E0295D3846FFF7E6FF601CC4B2B442D0
:10147000F7DB00BF40213846FFF7DCFC0028F9D03D
:10148000BDE8F08170B506460C46002500BF615DE1
:101490003046FFF7D0FF6D1C605D0028F7D100BF1C
:1014A00040213046FFF7C6FC0028F9D070BD2DE979
:1014B000F04105460C46260AE7B231462846FFF7BA
:1014C0004BFC00BF80212846FFF7B4FC0028F9D070
:1014D00039462846FFF740FC00BF80212846FFF729
:1014E000A9FC0028F9D0BDE8F08170B504460D468E
:1014F000E1B20F48FFF730FC00BF80210C48FFF736
:1015000099FC0028F9D0204670BD10B5044600BFF4
:1015100020210748FFF78EFC0028F9D00448FFF788
:101520001FFC10BD10B5FFF742FF10BD00080140C1
:101530000038014000B587B001210803FFF76CFABD
:101540000121C420FFF768FA1020ADF80400032041
:101550008DF8060010208DF8070001A95148FEF70C
:101560009FFF2020ADF8040018208DF8070001A986
:101570004C48FEF795FF4020ADF8040001A949480A
:10158000FEF78EFF8020ADF8040001A94548FEF764
:1015900087FF10214348FFF730F80020ADF808001E
:1015A0004FF48270ADF80A000020ADF80C00ADF8E1
:1015B0000E00ADF810004FF40070ADF812002020BE
:1015C000ADF814000020ADF816000720ADF81800A3
:1015D00002A93548FFF7AEFC01213348FFF74FFD64
:1015E00007B000BD70B50446002506E02846691C1A
:1015F000CDB2C82801DD002070BD02212A48FFF7C6
:10160000C2FD0028F2D021462748FFF769FD0025DA
:1016100006E02846691CCDB2C82801DD0020EBE7B2
:1016200001212148FFF7AFFD0028F2D01E48FFF747
:1016300059FDC0B2E0E770B504460D462E4603E002
:101640002078FFF7CFFF641C281EA5F101018DB2A1
:10165000F6D1304670BD70B504460D462E4604E006
:101660000020FFF7BFFF2070641C281EA5F10101B8
:101670008DB2F5D1304670BD2DE9F04104460D46DE
:1016800016462F4605E02078FFF7ACFF3070641C4B
:10169000761C281EA5F101018DB2F4D13846BDE8B3
:1016A000F0810000000801400030014008B5012130
:1016B0000820FFF7B1F92020ADF8000010208DF8C8
:1016C000030003208DF8020069465A48FEF7E8FE41
:1016D00008BD10B520215748FEF78FFF6420FFF7A3
:1016E0003AFE20215348FEF78AFF6420FFF733FEBD
:1016F00010BD10B5FFF7DAFFFFF7EBFF4E490020F2
:1017000000F0ECF810BD08B5002000906B4645F2E3
:10171000066200214848006800F00DF900BF9DF8FE
:10172000001046A000F06CFA00BF08BD30B5E7B06D
:1017300000206690C82134A800F0F3F9C82102A85F
:1017400000F0EFF9C82566AB4FF4AF4200213A48EC
:10175000006800F0F0F806234FF4AF42002136484D
:10176000006800F0C7F8002404E004F10A0034A97E
:101770000855641CC82CF8DB34AB002211462E48F7
:101780000095006800F002F902AB002211462A48D9
:101790000095006800F041F9002400E0641CAC42B0
:1017A00005DA34A8005D02A9095D8842F6D0AC4292
:1017B00039D028A000F024FA2FA000F021FA00244C
:1017C00010E034A8015D31A000F01AFAE11704EB33
:1017D00011710911A4EB01110F2902D12DA000F004
:1017E0000FFA641CAC42ECDB2AA000F009FA2AA034
:1017F00000F006FA002410E002A8015D23A000F02A
:10180000FFF9E11704EB11710911A4EB01110F2984
:1018100002D120A000F0F4F9641CAC42ECDB1DA066
:1018200000F0EEF903E029461FA000F0E9F967B0E7
:1018300030BD0000000C01402C0000205358313313
:1018400030322076657273696F6E3A2030782530B9
:1018500032580A006572726F7220647572696E6721
:10186000207468652062756666657220636F6D70AE
:10187000617269736F6E0A005772697474656E20C5
:1018800076616C7565733A0A0000000020253032DD
:10189000582000000A000000526561642076616CE7
:1018A0007565733A0A000000646964206120256947
:1018B0002D6279746520522F57206F6E206120644D
:1018C000617461206275666665722077697468204C
:1018D0006E6F206572726F720A00000070B5054667
:1018E0000C4671A0206000F0E7F8002070BD0146B2
:1018F000002070472DE9F84380460D4614461E46E9
:101900008DF80050C4F3062040F080008DF80100EF
:10191000E0B28DF802008DF803600427002000F08B
:10192000CFF83946684600F0D8F8012000F0C8F832
:101930000020BDE8F8832DE9FF4180460F4614469C
:101940001D4625B94FF0FF3004B0BDE8F0818DF899
:101950000870C4F306208DF80900E0B28DF80A0083
:1019600000208DF80B008DF80C00052600F0A8F87B
:101970006A46314602A800F0C0F8012000F0A0F845
:10198000701E1DF8000028700020DDE72DE9FE4FD5
:10199000884615461E46DDF830900020009016B9A6
:1019A000401EBDE8FE8FB9F1000F02D14FF0FF30AD
:1019B000F7E78DF80880C5F3062040F080008DF829
:1019C0000900E8B28DF80A004FF0030A4C460020E7
:1019D00000F076F8514602A800F07FF8002715E0E5
:1019E000B4F5806F01DA204601E04FF48060834651
:1019F000BA0201921FFA8BF1019AB01800F06DF84B
:101A0000009908440090A4EB0B047F1C002CE7DC39
:101A1000012000F055F80020C3E72DE9FE4F88466D
:101A200015461E46DDF830900020009016B9401E85
:101A3000BDE8FE8FB9F1000F02D14FF0FF30F7E79C
:101A40008DF80880C5F306208DF80900E8B28DF8FE
:101A50000A0000208DF80B004FF0040A4C4600F0FD
:101A60002FF8514602A800F038F8002715E0B4F529
:101A7000806F01DA204601E04FF480608346BA02AD
:101A800001921FFA8BF1019AB01800F02EF800991C
:101A900008440090A4EB0B047F1C002CE7DC012021
:101AA00000F00EF80020C3E77370695F746172671D
:101AB00065745F707472000010B5FFF73BFD10BDD8
:101AC00010B5044624B110211148FEF796FD03E03D
:101AD00010210F48FEF793FD10BD70B504460D466A
:101AE00029462046FFF7A7FD70BD70B504460D4698
:101AF00029462046FFF7AFFD70BD70B504460D4680
:101B00001646324629462046FFF7B6FD70BD000056
:101B100000080140D2B201E000F8012B491EFBD2BF
:101B200070470022F6E710B513460A4604461946E8
:101B3000FFF7F0FF204610BD2DE9F05F05460020BD
:101B400092469B4688460646814640241BE028462E
:101B500041464746224600F042F853465A46C01ACC
:101B6000914110D311461846224600F029F82D1A4B
:101B700067EB01084F4622460120002100F020F8C3
:101B800017EB00094E41201EA4F10104DFDC48469A
:101B900031462A464346BDE8F09F0000064C074DFB
:101BA00006E0E06840F0010394E80700984710342D
:101BB000AC42F6D3FEF79EFAA4200008C420000829
:101BC000202A04DB203A00FA02F1002070479140FD
:101BD000C2F1200320FA03F3194390407047202AF2
:101BE00004DB203A21FA02F00021704721FA02F3C7
:101BF000D040C2F1200291400843194670470000CE
:101C00000FB4054B10B503A9044A029800F018F868
:101C100010BC5DF814FB0000EB140008300000203D
:101C200002E008C8121F08C1002AFAD170477047A5
:101C3000002001E001C1121F002AFBD17047000003
:101C40002DE9FF4F8DB00F460546002606E02528FA
:101C50000BD0DDE90F1290476D1C761C2878002808
:101C6000F5D111B03046BDE8F08F0024A246A14660
:101C70000122EC4900E0044315F8013F203B02FA41
:101C800003F00842F7D128782A2810D06FF02F02ED
:101C90002878A0F13001092914D80AEB8A0102EB57
:101CA000410144F0020400EB010A6D1CF0E701CF92
:101CB0005FEA000A03D544F40054CAF1000A44F074
:101CC00002046D1C28782E2817D115F8010F44F056
:101CD00004042A280ED06FF02F022878A0F13001DA
:101CE00009290AD809EB890102EB410100EB01093E
:101CF0006D1CF2E757F8049B6D1C28786C280FD0F8
:101D000006DC4C2817D068280DD06A2814D104E0CE
:101D1000742810D07A280FD10DE044F400140AE0A2
:101D200044F4801401E044F440146978814202D103
:101D300004F580146D1C6D1C2A786E2A1FD00CDCF3
:101D4000632A31D004DC002A8BD0582A11D1A3E0B9
:101D5000642A68D0692A0CD165E0732A2ED004DC8D
:101D60006F2A73D0702A04D19BE0752A6FD0782A2D
:101D70006ED01046DDE90F129047761C50E1C4F397
:101D80000250022806D0032809D0042801CF09D028
:101D9000066045E101CFF117C0E9006140E101CFE4
:101DA00006803DE106703BE117F8040B8DF800005A
:101DB00000208DF80100EB46012003E057F804BB3A
:101DC0004FF0FF3061074FF0000102D40DE008F141
:101DD0000101884649450FDA8045F8DB1BF80810F9
:101DE0000029F4D108E008F1010188468142FADBBC
:101DF0001BF808100029F6D1DDE90F23AAEB080033
:101E00008146214600F036F9304400EB080604E034
:101E1000DDE90F121BF8010B9047B8F10108F7D26A
:101E200021464846F7E00A21C4F302534FF0000B65
:101E30000891022B04D001CFC117032B09D00AE06F
:101E4000FF1D27F00707F7E8020108E032E01FE076
:101E500020E000B2C117042B01D140B2C117031E0C
:101E600071F1000307DA4FF0000CD0EB0C006CEBC3
:101E700001012D2302E0230504D52B238DF8243006
:101E8000012303E0E30701D02023F7E7984658E059
:101E90000A2110E010210EE010204FF0000B0890F6
:101EA0000CE010214FF0000B44F004044FF008093F
:101EB000089103E008214FF0000B0891C4F302538E
:101EC000022B04D001CF0021032B06D006E0FF1D1A
:101ED00027F00707F7E8020103E080B2042B00D1E6
:101EE000C0B24FF0000823072BD5702A07D0DDF8C9
:101EF00020C08CF0100C5CEA0B0C05D00EE04023E7
:101F00008DF82430012308E050EA010306D0302385
:101F10008DF824308DF8252002239846DDF820C066
:101F20008CF0080C5CEA0B0C0BD150EA010301D1D8
:101F3000630706D530238DF824304FF00108A9F14E
:101F40000109582A04D038A20B9208AA0A920BE081
:101F50003AA2F9E75B46089AFFF7EEFD0B9B9B5C04
:101F60000A9A521E0A92137050EA0102F2D10A989C
:101F7000ADEB000000F1200B600702D524F48034A3
:101F800001E04FF00109D94502DDA9EB0B0000E0AB
:101F9000002000EB0B0141440890AAEB010AE0038A
:101FA00006D4DDE90F232146504600F063F80644CD
:101FB0004FF0000908E009A911F80900DDE90F1246
:101FC000904709F10109761CC145F4DBE0030CD50B
:101FD000DDE90F232146504600F04CF8064404E0AA
:101FE000DDE90F1230209047761C0899481E0890B2
:101FF0000029F5DC08E00A980A990078491C0A9142
:10200000DDE90F129047761CBBF10001ABF1010B2B
:10201000F1DC21465046DDE90F2300F019F80644B3
:102020006D1C1BE609280100303132333435363758
:102030003839616263646566000000003031323314
:1020400034353637383941424344454600000000B4
:102050002DE9F041044600251E461746880404D4A5
:1020600005E039462020B0476D1C641EF9D528468E
:10207000BDE8F0812DE9F041044600251E4690465A
:10208000C80301D5302700E02027880404D505E0E7
:1020900041463846B0476D1C641EF9D52846BDE858
:1020A000F0810000C420000800000020340000007F
:1020B000201C0008F8200008340000200404000060
:1020C000301C000800A24A040000000000000000CC
:1020D00001020304060708090000000001020304CE
:1020E00001020304060708090204060800000000B4
:0820F0000000000000000000E8
:04000005080000ED02
:00000001FF
